{
  "contractName": "DonateNFT",
  "abi": [
    {
      "inputs": [],
      "stateMutability": "nonpayable",
      "type": "constructor"
    },
    {
      "anonymous": false,
      "inputs": [
        {
          "indexed": true,
          "internalType": "address",
          "name": "owner",
          "type": "address"
        },
        {
          "indexed": true,
          "internalType": "address",
          "name": "approved",
          "type": "address"
        },
        {
          "indexed": true,
          "internalType": "uint256",
          "name": "tokenId",
          "type": "uint256"
        }
      ],
      "name": "Approval",
      "type": "event"
    },
    {
      "anonymous": false,
      "inputs": [
        {
          "indexed": true,
          "internalType": "address",
          "name": "owner",
          "type": "address"
        },
        {
          "indexed": true,
          "internalType": "address",
          "name": "operator",
          "type": "address"
        },
        {
          "indexed": false,
          "internalType": "bool",
          "name": "approved",
          "type": "bool"
        }
      ],
      "name": "ApprovalForAll",
      "type": "event"
    },
    {
      "anonymous": false,
      "inputs": [
        {
          "indexed": true,
          "internalType": "address",
          "name": "previousOwner",
          "type": "address"
        },
        {
          "indexed": true,
          "internalType": "address",
          "name": "newOwner",
          "type": "address"
        }
      ],
      "name": "OwnershipTransferred",
      "type": "event"
    },
    {
      "anonymous": false,
      "inputs": [
        {
          "indexed": true,
          "internalType": "address",
          "name": "from",
          "type": "address"
        },
        {
          "indexed": true,
          "internalType": "address",
          "name": "to",
          "type": "address"
        },
        {
          "indexed": true,
          "internalType": "uint256",
          "name": "tokenId",
          "type": "uint256"
        }
      ],
      "name": "Transfer",
      "type": "event"
    },
    {
      "inputs": [],
      "name": "MarketAddress",
      "outputs": [
        {
          "internalType": "address",
          "name": "",
          "type": "address"
        }
      ],
      "stateMutability": "view",
      "type": "function",
      "constant": true
    },
    {
      "inputs": [
        {
          "internalType": "address",
          "name": "to",
          "type": "address"
        },
        {
          "internalType": "uint256",
          "name": "tokenId",
          "type": "uint256"
        }
      ],
      "name": "approve",
      "outputs": [],
      "stateMutability": "nonpayable",
      "type": "function"
    },
    {
      "inputs": [
        {
          "internalType": "address",
          "name": "owner",
          "type": "address"
        }
      ],
      "name": "balanceOf",
      "outputs": [
        {
          "internalType": "uint256",
          "name": "",
          "type": "uint256"
        }
      ],
      "stateMutability": "view",
      "type": "function",
      "constant": true
    },
    {
      "inputs": [
        {
          "internalType": "uint256",
          "name": "tokenId",
          "type": "uint256"
        }
      ],
      "name": "getApproved",
      "outputs": [
        {
          "internalType": "address",
          "name": "",
          "type": "address"
        }
      ],
      "stateMutability": "view",
      "type": "function",
      "constant": true
    },
    {
      "inputs": [
        {
          "internalType": "address",
          "name": "owner",
          "type": "address"
        },
        {
          "internalType": "address",
          "name": "operator",
          "type": "address"
        }
      ],
      "name": "isApprovedForAll",
      "outputs": [
        {
          "internalType": "bool",
          "name": "",
          "type": "bool"
        }
      ],
      "stateMutability": "view",
      "type": "function",
      "constant": true
    },
    {
      "inputs": [],
      "name": "name",
      "outputs": [
        {
          "internalType": "string",
          "name": "",
          "type": "string"
        }
      ],
      "stateMutability": "view",
      "type": "function",
      "constant": true
    },
    {
      "inputs": [],
      "name": "owner",
      "outputs": [
        {
          "internalType": "address",
          "name": "",
          "type": "address"
        }
      ],
      "stateMutability": "view",
      "type": "function",
      "constant": true
    },
    {
      "inputs": [
        {
          "internalType": "uint256",
          "name": "tokenId",
          "type": "uint256"
        }
      ],
      "name": "ownerOf",
      "outputs": [
        {
          "internalType": "address",
          "name": "",
          "type": "address"
        }
      ],
      "stateMutability": "view",
      "type": "function",
      "constant": true
    },
    {
      "inputs": [],
      "name": "renounceOwnership",
      "outputs": [],
      "stateMutability": "nonpayable",
      "type": "function"
    },
    {
      "inputs": [
        {
          "internalType": "address",
          "name": "from",
          "type": "address"
        },
        {
          "internalType": "address",
          "name": "to",
          "type": "address"
        },
        {
          "internalType": "uint256",
          "name": "tokenId",
          "type": "uint256"
        }
      ],
      "name": "safeTransferFrom",
      "outputs": [],
      "stateMutability": "nonpayable",
      "type": "function"
    },
    {
      "inputs": [
        {
          "internalType": "address",
          "name": "from",
          "type": "address"
        },
        {
          "internalType": "address",
          "name": "to",
          "type": "address"
        },
        {
          "internalType": "uint256",
          "name": "tokenId",
          "type": "uint256"
        },
        {
          "internalType": "bytes",
          "name": "_data",
          "type": "bytes"
        }
      ],
      "name": "safeTransferFrom",
      "outputs": [],
      "stateMutability": "nonpayable",
      "type": "function"
    },
    {
      "inputs": [
        {
          "internalType": "address",
          "name": "operator",
          "type": "address"
        },
        {
          "internalType": "bool",
          "name": "approved",
          "type": "bool"
        }
      ],
      "name": "setApprovalForAll",
      "outputs": [],
      "stateMutability": "nonpayable",
      "type": "function"
    },
    {
      "inputs": [
        {
          "internalType": "bytes4",
          "name": "interfaceId",
          "type": "bytes4"
        }
      ],
      "name": "supportsInterface",
      "outputs": [
        {
          "internalType": "bool",
          "name": "",
          "type": "bool"
        }
      ],
      "stateMutability": "view",
      "type": "function",
      "constant": true
    },
    {
      "inputs": [],
      "name": "symbol",
      "outputs": [
        {
          "internalType": "string",
          "name": "",
          "type": "string"
        }
      ],
      "stateMutability": "view",
      "type": "function",
      "constant": true
    },
    {
      "inputs": [
        {
          "internalType": "uint256",
          "name": "tokenId",
          "type": "uint256"
        }
      ],
      "name": "tokenURI",
      "outputs": [
        {
          "internalType": "string",
          "name": "",
          "type": "string"
        }
      ],
      "stateMutability": "view",
      "type": "function",
      "constant": true
    },
    {
      "inputs": [
        {
          "internalType": "uint256",
          "name": "",
          "type": "uint256"
        }
      ],
      "name": "tokens",
      "outputs": [
        {
          "internalType": "address",
          "name": "owner",
          "type": "address"
        },
        {
          "internalType": "string",
          "name": "assetName",
          "type": "string"
        },
        {
          "internalType": "string",
          "name": "assetDesc",
          "type": "string"
        },
        {
          "internalType": "uint256",
          "name": "tokenId",
          "type": "uint256"
        },
        {
          "internalType": "string",
          "name": "tokenURI",
          "type": "string"
        },
        {
          "internalType": "uint256",
          "name": "donateAmmount",
          "type": "uint256"
        }
      ],
      "stateMutability": "view",
      "type": "function",
      "constant": true
    },
    {
      "inputs": [
        {
          "internalType": "address",
          "name": "from",
          "type": "address"
        },
        {
          "internalType": "address",
          "name": "to",
          "type": "address"
        },
        {
          "internalType": "uint256",
          "name": "tokenId",
          "type": "uint256"
        }
      ],
      "name": "transferFrom",
      "outputs": [],
      "stateMutability": "nonpayable",
      "type": "function"
    },
    {
      "inputs": [
        {
          "internalType": "address",
          "name": "newOwner",
          "type": "address"
        }
      ],
      "name": "transferOwnership",
      "outputs": [],
      "stateMutability": "nonpayable",
      "type": "function"
    },
    {
      "inputs": [
        {
          "internalType": "address",
          "name": "_MarketAddress",
          "type": "address"
        }
      ],
      "name": "setMarketAddress",
      "outputs": [],
      "stateMutability": "nonpayable",
      "type": "function"
    },
    {
      "inputs": [],
      "name": "getMarketAddress",
      "outputs": [
        {
          "internalType": "address",
          "name": "",
          "type": "address"
        }
      ],
      "stateMutability": "view",
      "type": "function",
      "constant": true
    },
    {
      "inputs": [],
      "name": "current",
      "outputs": [
        {
          "internalType": "uint256",
          "name": "",
          "type": "uint256"
        }
      ],
      "stateMutability": "view",
      "type": "function",
      "constant": true
    },
    {
      "inputs": [
        {
          "internalType": "uint256",
          "name": "tokenId",
          "type": "uint256"
        }
      ],
      "name": "getTokenById",
      "outputs": [
        {
          "components": [
            {
              "internalType": "address",
              "name": "owner",
              "type": "address"
            },
            {
              "internalType": "string",
              "name": "assetName",
              "type": "string"
            },
            {
              "internalType": "string",
              "name": "assetDesc",
              "type": "string"
            },
            {
              "internalType": "uint256",
              "name": "tokenId",
              "type": "uint256"
            },
            {
              "internalType": "string",
              "name": "tokenURI",
              "type": "string"
            },
            {
              "internalType": "uint256",
              "name": "donateAmmount",
              "type": "uint256"
            }
          ],
          "internalType": "struct DonateNFT.Tokens",
          "name": "",
          "type": "tuple"
        }
      ],
      "stateMutability": "view",
      "type": "function",
      "constant": true
    },
    {
      "inputs": [
        {
          "internalType": "address",
          "name": "owner",
          "type": "address"
        },
        {
          "internalType": "string",
          "name": "assetName",
          "type": "string"
        },
        {
          "internalType": "string",
          "name": "assetDesc",
          "type": "string"
        },
        {
          "internalType": "string",
          "name": "_tokenURI",
          "type": "string"
        },
        {
          "internalType": "uint256",
          "name": "price",
          "type": "uint256"
        }
      ],
      "name": "create",
      "outputs": [],
      "stateMutability": "nonpayable",
      "type": "function"
    },
    {
      "inputs": [
        {
          "internalType": "address",
          "name": "target",
          "type": "address"
        }
      ],
      "name": "getTokensByWallet",
      "outputs": [
        {
          "components": [
            {
              "internalType": "address",
              "name": "owner",
              "type": "address"
            },
            {
              "internalType": "string",
              "name": "assetName",
              "type": "string"
            },
            {
              "internalType": "string",
              "name": "assetDesc",
              "type": "string"
            },
            {
              "internalType": "uint256",
              "name": "tokenId",
              "type": "uint256"
            },
            {
              "internalType": "string",
              "name": "tokenURI",
              "type": "string"
            },
            {
              "internalType": "uint256",
              "name": "donateAmmount",
              "type": "uint256"
            }
          ],
          "internalType": "struct DonateNFT.Tokens[]",
          "name": "",
          "type": "tuple[]"
        }
      ],
      "stateMutability": "view",
      "type": "function",
      "constant": true
    },
    {
      "inputs": [
        {
          "internalType": "uint256",
          "name": "tokenId",
          "type": "uint256"
        }
      ],
      "name": "newSale",
      "outputs": [],
      "stateMutability": "nonpayable",
      "type": "function"
    },
    {
      "inputs": [
        {
          "internalType": "address",
          "name": "from",
          "type": "address"
        },
        {
          "internalType": "address",
          "name": "to",
          "type": "address"
        },
        {
          "internalType": "uint256",
          "name": "tokenId",
          "type": "uint256"
        }
      ],
      "name": "_transferFrom",
      "outputs": [],
      "stateMutability": "nonpayable",
      "type": "function"
    }
  ],
  "bytecode": "0x60806040523480156200001157600080fd5b506040518060400160405280600981526020017f446f6e6174654e465400000000000000000000000000000000000000000000008152506040518060400160405280600881526020017f446f6e6174696f6e000000000000000000000000000000000000000000000000815250816000908051906020019062000096929190620001a6565b508060019080519060200190620000af929190620001a6565b505050620000d2620000c6620000d860201b60201c565b620000e060201b60201c565b620002bb565b600033905090565b6000600660009054906101000a900473ffffffffffffffffffffffffffffffffffffffff16905081600660006101000a81548173ffffffffffffffffffffffffffffffffffffffff021916908373ffffffffffffffffffffffffffffffffffffffff1602179055508173ffffffffffffffffffffffffffffffffffffffff168173ffffffffffffffffffffffffffffffffffffffff167f8be0079c531659141344cd1fd0a4f28419497f9722a3daafe3b4186f6b6457e060405160405180910390a35050565b828054620001b49062000285565b90600052602060002090601f016020900481019282620001d8576000855562000224565b82601f10620001f357805160ff191683800117855562000224565b8280016001018555821562000224579182015b828111156200022357825182559160200191906001019062000206565b5b50905062000233919062000237565b5090565b5b808211156200025257600081600090555060010162000238565b5090565b7f4e487b7100000000000000000000000000000000000000000000000000000000600052602260045260246000fd5b600060028204905060018216806200029e57607f821691505b60208210811415620002b557620002b462000256565b5b50919050565b613df880620002cb6000396000f3fe608060405234801561001057600080fd5b506004361061018e5760003560e01c80638da5cb5b116100de578063cb71253511610097578063e985e9c511610071578063e985e9c514610498578063f2fde38b146104c8578063fae92612146104e4578063ffae9c50146105005761018e565b8063cb7125351461042e578063d3b90b301461044a578063e7334fe51461047a5761018e565b80638da5cb5b1461036c57806395d89b411461038a5780639fa6a6e3146103a8578063a22cb465146103c6578063b88d4fde146103e2578063c87b56dd146103fe5761018e565b806330edb07c1161014b5780636352211e116101255780636352211e146102d257806370a0823114610302578063715018a6146103325780637bdc60d91461033c5761018e565b806330edb07c1461026557806342842e0e146102815780634f64b2be1461029d5761018e565b806301ffc9a71461019357806306fdde03146101c3578063081812fc146101e1578063095ea7b3146102115780631157022f1461022d57806323b872dd14610249575b600080fd5b6101ad60048036038101906101a891906127d2565b61051e565b6040516101ba919061281a565b60405180910390f35b6101cb610600565b6040516101d891906128ce565b60405180910390f35b6101fb60048036038101906101f69190612926565b610692565b6040516102089190612994565b60405180910390f35b61022b600480360381019061022691906129db565b610717565b005b61024760048036038101906102429190612b50565b61082f565b005b610263600480360381019061025e9190612c1f565b61097e565b005b61027f600480360381019061027a9190612926565b6109de565b005b61029b60048036038101906102969190612c1f565b610a9d565b005b6102b760048036038101906102b29190612926565b610abd565b6040516102c996959493929190612c81565b60405180910390f35b6102ec60048036038101906102e79190612926565b610cc1565b6040516102f99190612994565b60405180910390f35b61031c60048036038101906103179190612cf7565b610d73565b6040516103299190612d24565b60405180910390f35b61033a610e2b565b005b61035660048036038101906103519190612926565b610eb3565b6040516103639190612e3e565b60405180910390f35b61037461110f565b6040516103819190612994565b60405180910390f35b610392611139565b60405161039f91906128ce565b60405180910390f35b6103b06111cb565b6040516103bd9190612d24565b60405180910390f35b6103e060048036038101906103db9190612e8c565b6111d5565b005b6103fc60048036038101906103f79190612f6d565b6111eb565b005b61041860048036038101906104139190612926565b61124d565b60405161042591906128ce565b60405180910390f35b61044860048036038101906104439190612c1f565b61134f565b005b610464600480360381019061045f9190612cf7565b6113cb565b6040516104719190613149565b60405180910390f35b6104826117f5565b60405161048f9190612994565b60405180910390f35b6104b260048036038101906104ad919061316b565b61181f565b6040516104bf919061281a565b60405180910390f35b6104e260048036038101906104dd9190612cf7565b6118b3565b005b6104fe60048036038101906104f99190612cf7565b6119ab565b005b6105086119ef565b6040516105159190612994565b60405180910390f35b60007f80ac58cd000000000000000000000000000000000000000000000000000000007bffffffffffffffffffffffffffffffffffffffffffffffffffffffff1916827bffffffffffffffffffffffffffffffffffffffffffffffffffffffff191614806105e957507f5b5e139f000000000000000000000000000000000000000000000000000000007bffffffffffffffffffffffffffffffffffffffffffffffffffffffff1916827bffffffffffffffffffffffffffffffffffffffffffffffffffffffff1916145b806105f957506105f882611a15565b5b9050919050565b60606000805461060f906131da565b80601f016020809104026020016040519081016040528092919081815260200182805461063b906131da565b80156106885780601f1061065d57610100808354040283529160200191610688565b820191906000526020600020905b81548152906001019060200180831161066b57829003601f168201915b5050505050905090565b600061069d82611a7f565b6106dc576040517f08c379a00000000000000000000000000000000000000000000000000000000081526004016106d39061327e565b60405180910390fd5b6004600083815260200190815260200160002060009054906101000a900473ffffffffffffffffffffffffffffffffffffffff169050919050565b600061072282610cc1565b90508073ffffffffffffffffffffffffffffffffffffffff168373ffffffffffffffffffffffffffffffffffffffff161415610793576040517f08c379a000000000000000000000000000000000000000000000000000000000815260040161078a90613310565b60405180910390fd5b8073ffffffffffffffffffffffffffffffffffffffff166107b2611aeb565b73ffffffffffffffffffffffffffffffffffffffff1614806107e157506107e0816107db611aeb565b61181f565b5b610820576040517f08c379a0000000000000000000000000000000000000000000000000000000008152600401610817906133a2565b60405180910390fd5b61082a8383611af3565b505050565b61083b85600754611bac565b600a6040518060c001604052808773ffffffffffffffffffffffffffffffffffffffff168152602001868152602001858152602001600754815260200184815260200183815250908060018154018082558091505060019003906000526020600020906006020160009091909190915060008201518160000160006101000a81548173ffffffffffffffffffffffffffffffffffffffff021916908373ffffffffffffffffffffffffffffffffffffffff160217905550602082015181600101908051906020019061090e929190612677565b50604082015181600201908051906020019061092b929190612677565b50606082015181600301556080820151816004019080519060200190610952929190612677565b5060a08201518160050155505060076000815480929190610972906133f1565b91905055505050505050565b61098f610989611aeb565b82611d86565b6109ce576040517f08c379a00000000000000000000000000000000000000000000000000000000081526004016109c5906134ac565b60405180910390fd5b6109d9838383611e64565b505050565b610a0b33600860009054906101000a900473ffffffffffffffffffffffffffffffffffffffff168361134f565b600860009054906101000a900473ffffffffffffffffffffffffffffffffffffffff1673ffffffffffffffffffffffffffffffffffffffff1663180d3fbb33836040518363ffffffff1660e01b8152600401610a689291906134cc565b600060405180830381600087803b158015610a8257600080fd5b505af1158015610a96573d6000803e3d6000fd5b5050505050565b610ab8838383604051806020016040528060008152506111eb565b505050565b600a8181548110610acd57600080fd5b90600052602060002090600602016000915090508060000160009054906101000a900473ffffffffffffffffffffffffffffffffffffffff1690806001018054610b16906131da565b80601f0160208091040260200160405190810160405280929190818152602001828054610b42906131da565b8015610b8f5780601f10610b6457610100808354040283529160200191610b8f565b820191906000526020600020905b815481529060010190602001808311610b7257829003601f168201915b505050505090806002018054610ba4906131da565b80601f0160208091040260200160405190810160405280929190818152602001828054610bd0906131da565b8015610c1d5780601f10610bf257610100808354040283529160200191610c1d565b820191906000526020600020905b815481529060010190602001808311610c0057829003601f168201915b505050505090806003015490806004018054610c38906131da565b80601f0160208091040260200160405190810160405280929190818152602001828054610c64906131da565b8015610cb15780601f10610c8657610100808354040283529160200191610cb1565b820191906000526020600020905b815481529060010190602001808311610c9457829003601f168201915b5050505050908060050154905086565b6000806002600084815260200190815260200160002060009054906101000a900473ffffffffffffffffffffffffffffffffffffffff169050600073ffffffffffffffffffffffffffffffffffffffff168173ffffffffffffffffffffffffffffffffffffffff161415610d6a576040517f08c379a0000000000000000000000000000000000000000000000000000000008152600401610d6190613567565b60405180910390fd5b80915050919050565b60008073ffffffffffffffffffffffffffffffffffffffff168273ffffffffffffffffffffffffffffffffffffffff161415610de4576040517f08c379a0000000000000000000000000000000000000000000000000000000008152600401610ddb906135f9565b60405180910390fd5b600360008373ffffffffffffffffffffffffffffffffffffffff1673ffffffffffffffffffffffffffffffffffffffff168152602001908152602001600020549050919050565b610e33611aeb565b73ffffffffffffffffffffffffffffffffffffffff16610e5161110f565b73ffffffffffffffffffffffffffffffffffffffff1614610ea7576040517f08c379a0000000000000000000000000000000000000000000000000000000008152600401610e9e90613665565b60405180910390fd5b610eb160006120cb565b565b610ebb6126fd565b600a8281548110610ecf57610ece613685565b5b90600052602060002090600602016040518060c00160405290816000820160009054906101000a900473ffffffffffffffffffffffffffffffffffffffff1673ffffffffffffffffffffffffffffffffffffffff1673ffffffffffffffffffffffffffffffffffffffff168152602001600182018054610f4e906131da565b80601f0160208091040260200160405190810160405280929190818152602001828054610f7a906131da565b8015610fc75780601f10610f9c57610100808354040283529160200191610fc7565b820191906000526020600020905b815481529060010190602001808311610faa57829003601f168201915b50505050508152602001600282018054610fe0906131da565b80601f016020809104026020016040519081016040528092919081815260200182805461100c906131da565b80156110595780601f1061102e57610100808354040283529160200191611059565b820191906000526020600020905b81548152906001019060200180831161103c57829003601f168201915b505050505081526020016003820154815260200160048201805461107c906131da565b80601f01602080910402602001604051908101604052809291908181526020018280546110a8906131da565b80156110f55780601f106110ca576101008083540402835291602001916110f5565b820191906000526020600020905b8154815290600101906020018083116110d857829003601f168201915b505050505081526020016005820154815250509050919050565b6000600660009054906101000a900473ffffffffffffffffffffffffffffffffffffffff16905090565b606060018054611148906131da565b80601f0160208091040260200160405190810160405280929190818152602001828054611174906131da565b80156111c15780601f10611196576101008083540402835291602001916111c1565b820191906000526020600020905b8154815290600101906020018083116111a457829003601f168201915b5050505050905090565b6000600754905090565b6111e76111e0611aeb565b8383612191565b5050565b6111fc6111f6611aeb565b83611d86565b61123b576040517f08c379a0000000000000000000000000000000000000000000000000000000008152600401611232906134ac565b60405180910390fd5b611247848484846122fe565b50505050565b6060600073ffffffffffffffffffffffffffffffffffffffff166002600084815260200190815260200160002060009054906101000a900473ffffffffffffffffffffffffffffffffffffffff1673ffffffffffffffffffffffffffffffffffffffff1614156112f2576040517f08c379a00000000000000000000000000000000000000000000000000000000081526004016112e990613726565b60405180910390fd5b60006112fc61235a565b9050600081511161131c5760405180602001604052806000815250611347565b8061132684612371565b604051602001611337929190613782565b6040516020818303038152906040525b915050919050565b61135a83838361097e565b61136381610cc1565b600a828154811061137757611376613685565b5b906000526020600020906006020160000160006101000a81548173ffffffffffffffffffffffffffffffffffffffff021916908373ffffffffffffffffffffffffffffffffffffffff160217905550505050565b60606000805b600a80549050811015611479578373ffffffffffffffffffffffffffffffffffffffff16600a828154811061140957611408613685565b5b906000526020600020906006020160000160009054906101000a900473ffffffffffffffffffffffffffffffffffffffff1673ffffffffffffffffffffffffffffffffffffffff161415611466578180611462906133f1565b9250505b8080611471906133f1565b9150506113d1565b5060008167ffffffffffffffff81111561149657611495612a25565b5b6040519080825280602002602001820160405280156114cf57816020015b6114bc6126fd565b8152602001906001900390816114b45790505b5090506000805b600a805490508110156117e9578573ffffffffffffffffffffffffffffffffffffffff16600a828154811061150e5761150d613685565b5b906000526020600020906006020160000160009054906101000a900473ffffffffffffffffffffffffffffffffffffffff1673ffffffffffffffffffffffffffffffffffffffff1614156117d657600a81815481106115705761156f613685565b5b90600052602060002090600602016040518060c00160405290816000820160009054906101000a900473ffffffffffffffffffffffffffffffffffffffff1673ffffffffffffffffffffffffffffffffffffffff1673ffffffffffffffffffffffffffffffffffffffff1681526020016001820180546115ef906131da565b80601f016020809104026020016040519081016040528092919081815260200182805461161b906131da565b80156116685780601f1061163d57610100808354040283529160200191611668565b820191906000526020600020905b81548152906001019060200180831161164b57829003601f168201915b50505050508152602001600282018054611681906131da565b80601f01602080910402602001604051908101604052809291908181526020018280546116ad906131da565b80156116fa5780601f106116cf576101008083540402835291602001916116fa565b820191906000526020600020905b8154815290600101906020018083116116dd57829003601f168201915b505050505081526020016003820154815260200160048201805461171d906131da565b80601f0160208091040260200160405190810160405280929190818152602001828054611749906131da565b80156117965780601f1061176b57610100808354040283529160200191611796565b820191906000526020600020905b81548152906001019060200180831161177957829003601f168201915b505050505081526020016005820154815250508383815181106117bc576117bb613685565b5b602002602001018190525081806117d2906133f1565b9250505b80806117e1906133f1565b9150506114d6565b50819350505050919050565b6000600860009054906101000a900473ffffffffffffffffffffffffffffffffffffffff16905090565b6000600560008473ffffffffffffffffffffffffffffffffffffffff1673ffffffffffffffffffffffffffffffffffffffff16815260200190815260200160002060008373ffffffffffffffffffffffffffffffffffffffff1673ffffffffffffffffffffffffffffffffffffffff16815260200190815260200160002060009054906101000a900460ff16905092915050565b6118bb611aeb565b73ffffffffffffffffffffffffffffffffffffffff166118d961110f565b73ffffffffffffffffffffffffffffffffffffffff161461192f576040517f08c379a000000000000000000000000000000000000000000000000000000000815260040161192690613665565b60405180910390fd5b600073ffffffffffffffffffffffffffffffffffffffff168173ffffffffffffffffffffffffffffffffffffffff16141561199f576040517f08c379a000000000000000000000000000000000000000000000000000000000815260040161199690613818565b60405180910390fd5b6119a8816120cb565b50565b80600860006101000a81548173ffffffffffffffffffffffffffffffffffffffff021916908373ffffffffffffffffffffffffffffffffffffffff16021790555050565b600860009054906101000a900473ffffffffffffffffffffffffffffffffffffffff1681565b60007f01ffc9a7000000000000000000000000000000000000000000000000000000007bffffffffffffffffffffffffffffffffffffffffffffffffffffffff1916827bffffffffffffffffffffffffffffffffffffffffffffffffffffffff1916149050919050565b60008073ffffffffffffffffffffffffffffffffffffffff166002600084815260200190815260200160002060009054906101000a900473ffffffffffffffffffffffffffffffffffffffff1673ffffffffffffffffffffffffffffffffffffffff1614159050919050565b600033905090565b816004600083815260200190815260200160002060006101000a81548173ffffffffffffffffffffffffffffffffffffffff021916908373ffffffffffffffffffffffffffffffffffffffff160217905550808273ffffffffffffffffffffffffffffffffffffffff16611b6683610cc1565b73ffffffffffffffffffffffffffffffffffffffff167f8c5be1e5ebec7d5bd14f71427d1e84f3dd0314c0f7b2291e5b200ac8c7c3b92560405160405180910390a45050565b600073ffffffffffffffffffffffffffffffffffffffff168273ffffffffffffffffffffffffffffffffffffffff161415611c1c576040517f08c379a0000000000000000000000000000000000000000000000000000000008152600401611c1390613884565b60405180910390fd5b611c2581611a7f565b15611c65576040517f08c379a0000000000000000000000000000000000000000000000000000000008152600401611c5c906138f0565b60405180910390fd5b611c71600083836124d2565b6001600360008473ffffffffffffffffffffffffffffffffffffffff1673ffffffffffffffffffffffffffffffffffffffff1681526020019081526020016000206000828254611cc19190613910565b92505081905550816002600083815260200190815260200160002060006101000a81548173ffffffffffffffffffffffffffffffffffffffff021916908373ffffffffffffffffffffffffffffffffffffffff160217905550808273ffffffffffffffffffffffffffffffffffffffff16600073ffffffffffffffffffffffffffffffffffffffff167fddf252ad1be2c89b69c2b068fc378daa952ba7f163c4a11628f55a4df523b3ef60405160405180910390a4611d82600083836124d7565b5050565b6000611d9182611a7f565b611dd0576040517f08c379a0000000000000000000000000000000000000000000000000000000008152600401611dc7906139d8565b60405180910390fd5b6000611ddb83610cc1565b90508073ffffffffffffffffffffffffffffffffffffffff168473ffffffffffffffffffffffffffffffffffffffff161480611e1d5750611e1c818561181f565b5b80611e5b57508373ffffffffffffffffffffffffffffffffffffffff16611e4384610692565b73ffffffffffffffffffffffffffffffffffffffff16145b91505092915050565b8273ffffffffffffffffffffffffffffffffffffffff16611e8482610cc1565b73ffffffffffffffffffffffffffffffffffffffff1614611eda576040517f08c379a0000000000000000000000000000000000000000000000000000000008152600401611ed190613a6a565b60405180910390fd5b600073ffffffffffffffffffffffffffffffffffffffff168273ffffffffffffffffffffffffffffffffffffffff161415611f4a576040517f08c379a0000000000000000000000000000000000000000000000000000000008152600401611f4190613afc565b60405180910390fd5b611f558383836124d2565b611f60600082611af3565b6001600360008573ffffffffffffffffffffffffffffffffffffffff1673ffffffffffffffffffffffffffffffffffffffff1681526020019081526020016000206000828254611fb09190613b1c565b925050819055506001600360008473ffffffffffffffffffffffffffffffffffffffff1673ffffffffffffffffffffffffffffffffffffffff16815260200190815260200160002060008282546120079190613910565b92505081905550816002600083815260200190815260200160002060006101000a81548173ffffffffffffffffffffffffffffffffffffffff021916908373ffffffffffffffffffffffffffffffffffffffff160217905550808273ffffffffffffffffffffffffffffffffffffffff168473ffffffffffffffffffffffffffffffffffffffff167fddf252ad1be2c89b69c2b068fc378daa952ba7f163c4a11628f55a4df523b3ef60405160405180910390a46120c68383836124d7565b505050565b6000600660009054906101000a900473ffffffffffffffffffffffffffffffffffffffff16905081600660006101000a81548173ffffffffffffffffffffffffffffffffffffffff021916908373ffffffffffffffffffffffffffffffffffffffff1602179055508173ffffffffffffffffffffffffffffffffffffffff168173ffffffffffffffffffffffffffffffffffffffff167f8be0079c531659141344cd1fd0a4f28419497f9722a3daafe3b4186f6b6457e060405160405180910390a35050565b8173ffffffffffffffffffffffffffffffffffffffff168373ffffffffffffffffffffffffffffffffffffffff161415612200576040517f08c379a00000000000000000000000000000000000000000000000000000000081526004016121f790613b9c565b60405180910390fd5b80600560008573ffffffffffffffffffffffffffffffffffffffff1673ffffffffffffffffffffffffffffffffffffffff16815260200190815260200160002060008473ffffffffffffffffffffffffffffffffffffffff1673ffffffffffffffffffffffffffffffffffffffff16815260200190815260200160002060006101000a81548160ff0219169083151502179055508173ffffffffffffffffffffffffffffffffffffffff168373ffffffffffffffffffffffffffffffffffffffff167f17307eab39ab6107e8899845ad3d59bd9653f200f220920489ca2b5937696c31836040516122f1919061281a565b60405180910390a3505050565b612309848484611e64565b612315848484846124dc565b612354576040517f08c379a000000000000000000000000000000000000000000000000000000000815260040161234b90613c2e565b60405180910390fd5b50505050565b606060405180602001604052806000815250905090565b606060008214156123b9576040518060400160405280600181526020017f300000000000000000000000000000000000000000000000000000000000000081525090506124cd565b600082905060005b600082146123eb5780806123d4906133f1565b915050600a826123e49190613c7d565b91506123c1565b60008167ffffffffffffffff81111561240757612406612a25565b5b6040519080825280601f01601f1916602001820160405280156124395781602001600182028036833780820191505090505b5090505b600085146124c6576001826124529190613b1c565b9150600a856124619190613cae565b603061246d9190613910565b60f81b81838151811061248357612482613685565b5b60200101907effffffffffffffffffffffffffffffffffffffffffffffffffffffffffffff1916908160001a905350600a856124bf9190613c7d565b945061243d565b8093505050505b919050565b505050565b505050565b60006124fd8473ffffffffffffffffffffffffffffffffffffffff16612664565b15612657578373ffffffffffffffffffffffffffffffffffffffff1663150b7a02612526611aeb565b8786866040518563ffffffff1660e01b81526004016125489493929190613d34565b6020604051808303816000875af192505050801561258457506040513d601f19601f820116820180604052508101906125819190613d95565b60015b612607573d80600081146125b4576040519150601f19603f3d011682016040523d82523d6000602084013e6125b9565b606091505b506000815114156125ff576040517f08c379a00000000000000000000000000000000000000000000000000000000081526004016125f690613c2e565b60405180910390fd5b805181602001fd5b63150b7a0260e01b7bffffffffffffffffffffffffffffffffffffffffffffffffffffffff1916817bffffffffffffffffffffffffffffffffffffffffffffffffffffffff19161491505061265c565b600190505b949350505050565b600080823b905060008111915050919050565b828054612683906131da565b90600052602060002090601f0160209004810192826126a557600085556126ec565b82601f106126be57805160ff19168380011785556126ec565b828001600101855582156126ec579182015b828111156126eb5782518255916020019190600101906126d0565b5b5090506126f99190612749565b5090565b6040518060c00160405280600073ffffffffffffffffffffffffffffffffffffffff16815260200160608152602001606081526020016000815260200160608152602001600081525090565b5b8082111561276257600081600090555060010161274a565b5090565b6000604051905090565b600080fd5b600080fd5b60007fffffffff0000000000000000000000000000000000000000000000000000000082169050919050565b6127af8161277a565b81146127ba57600080fd5b50565b6000813590506127cc816127a6565b92915050565b6000602082840312156127e8576127e7612770565b5b60006127f6848285016127bd565b91505092915050565b60008115159050919050565b612814816127ff565b82525050565b600060208201905061282f600083018461280b565b92915050565b600081519050919050565b600082825260208201905092915050565b60005b8381101561286f578082015181840152602081019050612854565b8381111561287e576000848401525b50505050565b6000601f19601f8301169050919050565b60006128a082612835565b6128aa8185612840565b93506128ba818560208601612851565b6128c381612884565b840191505092915050565b600060208201905081810360008301526128e88184612895565b905092915050565b6000819050919050565b612903816128f0565b811461290e57600080fd5b50565b600081359050612920816128fa565b92915050565b60006020828403121561293c5761293b612770565b5b600061294a84828501612911565b91505092915050565b600073ffffffffffffffffffffffffffffffffffffffff82169050919050565b600061297e82612953565b9050919050565b61298e81612973565b82525050565b60006020820190506129a96000830184612985565b92915050565b6129b881612973565b81146129c357600080fd5b50565b6000813590506129d5816129af565b92915050565b600080604083850312156129f2576129f1612770565b5b6000612a00858286016129c6565b9250506020612a1185828601612911565b9150509250929050565b600080fd5b600080fd5b7f4e487b7100000000000000000000000000000000000000000000000000000000600052604160045260246000fd5b612a5d82612884565b810181811067ffffffffffffffff82111715612a7c57612a7b612a25565b5b80604052505050565b6000612a8f612766565b9050612a9b8282612a54565b919050565b600067ffffffffffffffff821115612abb57612aba612a25565b5b612ac482612884565b9050602081019050919050565b82818337600083830152505050565b6000612af3612aee84612aa0565b612a85565b905082815260208101848484011115612b0f57612b0e612a20565b5b612b1a848285612ad1565b509392505050565b600082601f830112612b3757612b36612a1b565b5b8135612b47848260208601612ae0565b91505092915050565b600080600080600060a08688031215612b6c57612b6b612770565b5b6000612b7a888289016129c6565b955050602086013567ffffffffffffffff811115612b9b57612b9a612775565b5b612ba788828901612b22565b945050604086013567ffffffffffffffff811115612bc857612bc7612775565b5b612bd488828901612b22565b935050606086013567ffffffffffffffff811115612bf557612bf4612775565b5b612c0188828901612b22565b9250506080612c1288828901612911565b9150509295509295909350565b600080600060608486031215612c3857612c37612770565b5b6000612c46868287016129c6565b9350506020612c57868287016129c6565b9250506040612c6886828701612911565b9150509250925092565b612c7b816128f0565b82525050565b600060c082019050612c966000830189612985565b8181036020830152612ca88188612895565b90508181036040830152612cbc8187612895565b9050612ccb6060830186612c72565b8181036080830152612cdd8185612895565b9050612cec60a0830184612c72565b979650505050505050565b600060208284031215612d0d57612d0c612770565b5b6000612d1b848285016129c6565b91505092915050565b6000602082019050612d396000830184612c72565b92915050565b612d4881612973565b82525050565b600082825260208201905092915050565b6000612d6a82612835565b612d748185612d4e565b9350612d84818560208601612851565b612d8d81612884565b840191505092915050565b612da1816128f0565b82525050565b600060c083016000830151612dbf6000860182612d3f565b5060208301518482036020860152612dd78282612d5f565b91505060408301518482036040860152612df18282612d5f565b9150506060830151612e066060860182612d98565b5060808301518482036080860152612e1e8282612d5f565b91505060a0830151612e3360a0860182612d98565b508091505092915050565b60006020820190508181036000830152612e588184612da7565b905092915050565b612e69816127ff565b8114612e7457600080fd5b50565b600081359050612e8681612e60565b92915050565b60008060408385031215612ea357612ea2612770565b5b6000612eb1858286016129c6565b9250506020612ec285828601612e77565b9150509250929050565b600067ffffffffffffffff821115612ee757612ee6612a25565b5b612ef082612884565b9050602081019050919050565b6000612f10612f0b84612ecc565b612a85565b905082815260208101848484011115612f2c57612f2b612a20565b5b612f37848285612ad1565b509392505050565b600082601f830112612f5457612f53612a1b565b5b8135612f64848260208601612efd565b91505092915050565b60008060008060808587031215612f8757612f86612770565b5b6000612f95878288016129c6565b9450506020612fa6878288016129c6565b9350506040612fb787828801612911565b925050606085013567ffffffffffffffff811115612fd857612fd7612775565b5b612fe487828801612f3f565b91505092959194509250565b600081519050919050565b600082825260208201905092915050565b6000819050602082019050919050565b600060c0830160008301516130346000860182612d3f565b506020830151848203602086015261304c8282612d5f565b915050604083015184820360408601526130668282612d5f565b915050606083015161307b6060860182612d98565b50608083015184820360808601526130938282612d5f565b91505060a08301516130a860a0860182612d98565b508091505092915050565b60006130bf838361301c565b905092915050565b6000602082019050919050565b60006130df82612ff0565b6130e98185612ffb565b9350836020820285016130fb8561300c565b8060005b85811015613137578484038952815161311885826130b3565b9450613123836130c7565b925060208a019950506001810190506130ff565b50829750879550505050505092915050565b6000602082019050818103600083015261316381846130d4565b905092915050565b6000806040838503121561318257613181612770565b5b6000613190858286016129c6565b92505060206131a1858286016129c6565b9150509250929050565b7f4e487b7100000000000000000000000000000000000000000000000000000000600052602260045260246000fd5b600060028204905060018216806131f257607f821691505b60208210811415613206576132056131ab565b5b50919050565b7f4552433732313a20617070726f76656420717565727920666f72206e6f6e657860008201527f697374656e7420746f6b656e0000000000000000000000000000000000000000602082015250565b6000613268602c83612840565b91506132738261320c565b604082019050919050565b600060208201905081810360008301526132978161325b565b9050919050565b7f4552433732313a20617070726f76616c20746f2063757272656e74206f776e6560008201527f7200000000000000000000000000000000000000000000000000000000000000602082015250565b60006132fa602183612840565b91506133058261329e565b604082019050919050565b60006020820190508181036000830152613329816132ed565b9050919050565b7f4552433732313a20617070726f76652063616c6c6572206973206e6f74206f7760008201527f6e6572206e6f7220617070726f76656420666f7220616c6c0000000000000000602082015250565b600061338c603883612840565b915061339782613330565b604082019050919050565b600060208201905081810360008301526133bb8161337f565b9050919050565b7f4e487b7100000000000000000000000000000000000000000000000000000000600052601160045260246000fd5b60006133fc826128f0565b91507fffffffffffffffffffffffffffffffffffffffffffffffffffffffffffffffff82141561342f5761342e6133c2565b5b600182019050919050565b7f4552433732313a207472616e736665722063616c6c6572206973206e6f74206f60008201527f776e6572206e6f7220617070726f766564000000000000000000000000000000602082015250565b6000613496603183612840565b91506134a18261343a565b604082019050919050565b600060208201905081810360008301526134c581613489565b9050919050565b60006040820190506134e16000830185612985565b6134ee6020830184612c72565b9392505050565b7f4552433732313a206f776e657220717565727920666f72206e6f6e657869737460008201527f656e7420746f6b656e0000000000000000000000000000000000000000000000602082015250565b6000613551602983612840565b915061355c826134f5565b604082019050919050565b6000602082019050818103600083015261358081613544565b9050919050565b7f4552433732313a2062616c616e636520717565727920666f7220746865207a6560008201527f726f206164647265737300000000000000000000000000000000000000000000602082015250565b60006135e3602a83612840565b91506135ee82613587565b604082019050919050565b60006020820190508181036000830152613612816135d6565b9050919050565b7f4f776e61626c653a2063616c6c6572206973206e6f7420746865206f776e6572600082015250565b600061364f602083612840565b915061365a82613619565b602082019050919050565b6000602082019050818103600083015261367e81613642565b9050919050565b7f4e487b7100000000000000000000000000000000000000000000000000000000600052603260045260246000fd5b7f4552433732314d657461646174613a2055524920717565727920666f72206e6f60008201527f6e6578697374656e7420746f6b656e0000000000000000000000000000000000602082015250565b6000613710602f83612840565b915061371b826136b4565b604082019050919050565b6000602082019050818103600083015261373f81613703565b9050919050565b600081905092915050565b600061375c82612835565b6137668185613746565b9350613776818560208601612851565b80840191505092915050565b600061378e8285613751565b915061379a8284613751565b91508190509392505050565b7f4f776e61626c653a206e6577206f776e657220697320746865207a65726f206160008201527f6464726573730000000000000000000000000000000000000000000000000000602082015250565b6000613802602683612840565b915061380d826137a6565b604082019050919050565b60006020820190508181036000830152613831816137f5565b9050919050565b7f4552433732313a206d696e7420746f20746865207a65726f2061646472657373600082015250565b600061386e602083612840565b915061387982613838565b602082019050919050565b6000602082019050818103600083015261389d81613861565b9050919050565b7f4552433732313a20746f6b656e20616c7265616479206d696e74656400000000600082015250565b60006138da601c83612840565b91506138e5826138a4565b602082019050919050565b60006020820190508181036000830152613909816138cd565b9050919050565b600061391b826128f0565b9150613926836128f0565b9250827fffffffffffffffffffffffffffffffffffffffffffffffffffffffffffffffff0382111561395b5761395a6133c2565b5b828201905092915050565b7f4552433732313a206f70657261746f7220717565727920666f72206e6f6e657860008201527f697374656e7420746f6b656e0000000000000000000000000000000000000000602082015250565b60006139c2602c83612840565b91506139cd82613966565b604082019050919050565b600060208201905081810360008301526139f1816139b5565b9050919050565b7f4552433732313a207472616e736665722066726f6d20696e636f72726563742060008201527f6f776e6572000000000000000000000000000000000000000000000000000000602082015250565b6000613a54602583612840565b9150613a5f826139f8565b604082019050919050565b60006020820190508181036000830152613a8381613a47565b9050919050565b7f4552433732313a207472616e7366657220746f20746865207a65726f2061646460008201527f7265737300000000000000000000000000000000000000000000000000000000602082015250565b6000613ae6602483612840565b9150613af182613a8a565b604082019050919050565b60006020820190508181036000830152613b1581613ad9565b9050919050565b6000613b27826128f0565b9150613b32836128f0565b925082821015613b4557613b446133c2565b5b828203905092915050565b7f4552433732313a20617070726f766520746f2063616c6c657200000000000000600082015250565b6000613b86601983612840565b9150613b9182613b50565b602082019050919050565b60006020820190508181036000830152613bb581613b79565b9050919050565b7f4552433732313a207472616e7366657220746f206e6f6e20455243373231526560008201527f63656976657220696d706c656d656e7465720000000000000000000000000000602082015250565b6000613c18603283612840565b9150613c2382613bbc565b604082019050919050565b60006020820190508181036000830152613c4781613c0b565b9050919050565b7f4e487b7100000000000000000000000000000000000000000000000000000000600052601260045260246000fd5b6000613c88826128f0565b9150613c93836128f0565b925082613ca357613ca2613c4e565b5b828204905092915050565b6000613cb9826128f0565b9150613cc4836128f0565b925082613cd457613cd3613c4e565b5b828206905092915050565b600081519050919050565b600082825260208201905092915050565b6000613d0682613cdf565b613d108185613cea565b9350613d20818560208601612851565b613d2981612884565b840191505092915050565b6000608082019050613d496000830187612985565b613d566020830186612985565b613d636040830185612c72565b8181036060830152613d758184613cfb565b905095945050505050565b600081519050613d8f816127a6565b92915050565b600060208284031215613dab57613daa612770565b5b6000613db984828501613d80565b9150509291505056fea26469706673582212202b2cbd7d82be3fde241f23764cd3fcbe2569b53cdd2238af7e35e1718483491a64736f6c634300080a0033",
  "immutableReferences": {},
  "source": "// SPDX-License-Identifier: MIT\npragma solidity ^0.8.4;\n\nimport \"./token/ERC721/ERC721.sol\";\nimport \"./access/Ownable.sol\";\nimport \"./Market.sol\";\n\ncontract DonateNFT is ERC721, Ownable {\n    uint256 private _tokenIds;\n    address public MarketAddress;\n    mapping(uint256 => string) tokenURIs;\n    Tokens[] public tokens;\n\n    struct Tokens {\n        address owner;\n        string assetName;\n        string assetDesc;\n        uint256 tokenId;\n        string tokenURI;\n        uint256 donateAmmount;\n    }\n\n    constructor() ERC721(\"DonateNFT\", \"Donation\") {}\n\n    function setMarketAddress(address _MarketAddress) public {\n        MarketAddress = _MarketAddress;\n    }\n\n    function getMarketAddress() public view returns (address) {\n        return MarketAddress;\n    }\n\n    function current() public view returns (uint256) {\n        return _tokenIds;\n    }\n\n    function getTokenById(uint256 tokenId) public view returns (Tokens memory) {\n        return tokens[tokenId];\n    }\n\n    function create(\n        address owner,\n        string memory assetName,\n        string memory assetDesc,\n        string memory _tokenURI,\n        uint256 price\n    ) public {\n        _mint(owner, _tokenIds);\n\n        tokens.push(\n            Tokens(owner, assetName, assetDesc, _tokenIds, _tokenURI, price)\n        );\n        _tokenIds++;\n    }\n\n    function getTokensByWallet(address target)\n        public\n        view\n        returns (Tokens[] memory)\n    {\n        uint256 nowLength = 0;\n\n        for (uint256 i = 0; i < tokens.length; i++) {\n            if (tokens[i].owner == target) {\n                nowLength++;\n            }\n        }\n\n        Tokens[] memory ret = new Tokens[](nowLength);\n        uint256 j = 0;\n        for (uint256 i = 0; i < tokens.length; i++) {\n            if (tokens[i].owner == target) {\n                ret[j] = tokens[i];\n                j++;\n            }\n        }\n\n        return ret;\n    }\n\n    function newSale(uint256 tokenId) public {\n        _transferFrom(msg.sender, MarketAddress, tokenId);\n        Market(MarketAddress).newSale(msg.sender, tokenId);\n    }\n\n    function _transferFrom(\n        address from,\n        address to,\n        uint256 tokenId\n    ) public {\n        transferFrom(from, to, tokenId);\n        tokens[tokenId].owner = ownerOf(tokenId);\n    }\n}\n",
  "sourcePath": "D:\\SSAFY\\work_SSAFY\\PJT\\S06P22D109\\smart-contracts\\contracts\\DonateNFT.sol",
  "compiler": {
    "name": "solc",
    "version": "0.8.10+commit.fc410830.Emscripten.clang"
  },
  "schemaVersion": "3.4.3",
  "updatedAt": "2022-04-07T07:22:32.926Z",
  "networkType": "ethereum",
  "devdoc": {
    "kind": "dev",
    "methods": {
      "approve(address,uint256)": {
        "details": "See {IERC721-approve}."
      },
      "balanceOf(address)": {
        "details": "See {IERC721-balanceOf}."
      },
      "getApproved(uint256)": {
        "details": "See {IERC721-getApproved}."
      },
      "isApprovedForAll(address,address)": {
        "details": "See {IERC721-isApprovedForAll}."
      },
      "name()": {
        "details": "See {IERC721Metadata-name}."
      },
      "owner()": {
        "details": "Returns the address of the current owner."
      },
      "ownerOf(uint256)": {
        "details": "See {IERC721-ownerOf}."
      },
      "renounceOwnership()": {
        "details": "Leaves the contract without owner. It will not be possible to call `onlyOwner` functions anymore. Can only be called by the current owner. NOTE: Renouncing ownership will leave the contract without an owner, thereby removing any functionality that is only available to the owner."
      },
      "safeTransferFrom(address,address,uint256)": {
        "details": "See {IERC721-safeTransferFrom}."
      },
      "safeTransferFrom(address,address,uint256,bytes)": {
        "details": "See {IERC721-safeTransferFrom}."
      },
      "setApprovalForAll(address,bool)": {
        "details": "See {IERC721-setApprovalForAll}."
      },
      "supportsInterface(bytes4)": {
        "details": "See {IERC165-supportsInterface}."
      },
      "symbol()": {
        "details": "See {IERC721Metadata-symbol}."
      },
      "tokenURI(uint256)": {
        "details": "See {IERC721Metadata-tokenURI}."
      },
      "transferFrom(address,address,uint256)": {
        "details": "See {IERC721-transferFrom}."
      },
      "transferOwnership(address)": {
        "details": "Transfers ownership of the contract to a new account (`newOwner`). Can only be called by the current owner."
      }
    },
    "version": 1
  },
  "userdoc": {
    "kind": "user",
    "methods": {},
    "version": 1
  }
}