{
  "contractName": "Market",
  "abi": [
    {
      "inputs": [],
      "stateMutability": "nonpayable",
      "type": "constructor"
    },
    {
      "anonymous": false,
      "inputs": [
        {
          "indexed": true,
          "internalType": "address",
          "name": "previousOwner",
          "type": "address"
        },
        {
          "indexed": true,
          "internalType": "address",
          "name": "newOwner",
          "type": "address"
        }
      ],
      "name": "OwnershipTransferred",
      "type": "event"
    },
    {
      "anonymous": false,
      "inputs": [
        {
          "indexed": true,
          "internalType": "address",
          "name": "sender",
          "type": "address"
        },
        {
          "indexed": true,
          "internalType": "address",
          "name": "receiver",
          "type": "address"
        },
        {
          "indexed": false,
          "internalType": "uint256",
          "name": "price",
          "type": "uint256"
        }
      ],
      "name": "SendEther",
      "type": "event"
    },
    {
      "inputs": [],
      "name": "NFTAddress",
      "outputs": [
        {
          "internalType": "address",
          "name": "",
          "type": "address"
        }
      ],
      "stateMutability": "view",
      "type": "function",
      "constant": true
    },
    {
      "inputs": [],
      "name": "admin",
      "outputs": [
        {
          "internalType": "address",
          "name": "",
          "type": "address"
        }
      ],
      "stateMutability": "view",
      "type": "function",
      "constant": true
    },
    {
      "inputs": [],
      "name": "myAddress",
      "outputs": [
        {
          "internalType": "address",
          "name": "",
          "type": "address"
        }
      ],
      "stateMutability": "view",
      "type": "function",
      "constant": true
    },
    {
      "inputs": [],
      "name": "owner",
      "outputs": [
        {
          "internalType": "address",
          "name": "",
          "type": "address"
        }
      ],
      "stateMutability": "view",
      "type": "function",
      "constant": true
    },
    {
      "inputs": [],
      "name": "renounceOwnership",
      "outputs": [],
      "stateMutability": "nonpayable",
      "type": "function"
    },
    {
      "inputs": [
        {
          "internalType": "uint256",
          "name": "",
          "type": "uint256"
        }
      ],
      "name": "sales",
      "outputs": [
        {
          "internalType": "address",
          "name": "seller",
          "type": "address"
        }
      ],
      "stateMutability": "view",
      "type": "function",
      "constant": true
    },
    {
      "inputs": [
        {
          "internalType": "address",
          "name": "newOwner",
          "type": "address"
        }
      ],
      "name": "transferOwnership",
      "outputs": [],
      "stateMutability": "nonpayable",
      "type": "function"
    },
    {
      "inputs": [
        {
          "internalType": "address",
          "name": "_NFTAddress",
          "type": "address"
        }
      ],
      "name": "setNFTAddress",
      "outputs": [],
      "stateMutability": "nonpayable",
      "type": "function"
    },
    {
      "inputs": [],
      "name": "getNFTAddress",
      "outputs": [
        {
          "internalType": "address",
          "name": "",
          "type": "address"
        }
      ],
      "stateMutability": "view",
      "type": "function",
      "constant": true
    },
    {
      "inputs": [
        {
          "internalType": "address",
          "name": "seller",
          "type": "address"
        },
        {
          "internalType": "uint256",
          "name": "tokenId",
          "type": "uint256"
        }
      ],
      "name": "newSale",
      "outputs": [],
      "stateMutability": "nonpayable",
      "type": "function"
    },
    {
      "inputs": [
        {
          "internalType": "uint256",
          "name": "tokenId",
          "type": "uint256"
        },
        {
          "internalType": "bool",
          "name": "isCancel",
          "type": "bool"
        }
      ],
      "name": "deleteSale",
      "outputs": [],
      "stateMutability": "nonpayable",
      "type": "function"
    },
    {
      "inputs": [
        {
          "internalType": "uint256",
          "name": "tokenId",
          "type": "uint256"
        }
      ],
      "name": "getSales",
      "outputs": [
        {
          "components": [
            {
              "internalType": "address",
              "name": "seller",
              "type": "address"
            }
          ],
          "internalType": "struct Market.Sales",
          "name": "",
          "type": "tuple"
        }
      ],
      "stateMutability": "view",
      "type": "function",
      "constant": true
    },
    {
      "inputs": [],
      "name": "getAdmin",
      "outputs": [
        {
          "internalType": "address",
          "name": "",
          "type": "address"
        }
      ],
      "stateMutability": "view",
      "type": "function",
      "constant": true
    },
    {
      "inputs": [
        {
          "internalType": "uint256",
          "name": "tokenId",
          "type": "uint256"
        }
      ],
      "name": "trading",
      "outputs": [],
      "stateMutability": "payable",
      "type": "function",
      "payable": true
    },
    {
      "inputs": [
        {
          "internalType": "address",
          "name": "donateGetter",
          "type": "address"
        },
        {
          "internalType": "string",
          "name": "assetName",
          "type": "string"
        },
        {
          "internalType": "string",
          "name": "assetDesc",
          "type": "string"
        },
        {
          "internalType": "string",
          "name": "assetImageUrl",
          "type": "string"
        }
      ],
      "name": "donating",
      "outputs": [],
      "stateMutability": "payable",
      "type": "function",
      "payable": true
    }
  ],
  "bytecode": "0x608060405234801561001057600080fd5b5061002d6100226100b460201b60201c565b6100bc60201b60201c565b33600160006101000a81548173ffffffffffffffffffffffffffffffffffffffff021916908373ffffffffffffffffffffffffffffffffffffffff16021790555030600360006101000a81548173ffffffffffffffffffffffffffffffffffffffff021916908373ffffffffffffffffffffffffffffffffffffffff160217905550610180565b600033905090565b60008060009054906101000a900473ffffffffffffffffffffffffffffffffffffffff169050816000806101000a81548173ffffffffffffffffffffffffffffffffffffffff021916908373ffffffffffffffffffffffffffffffffffffffff1602179055508173ffffffffffffffffffffffffffffffffffffffff168173ffffffffffffffffffffffffffffffffffffffff167f8be0079c531659141344cd1fd0a4f28419497f9722a3daafe3b4186f6b6457e060405160405180910390a35050565b6113bb8061018f6000396000f3fe6080604052600436106100e85760003560e01c8063715018a61161008a578063f2fde38b11610059578063f2fde38b146102c3578063f6445297146102ec578063f851a44014610308578063fa36543f14610333576100e8565b8063715018a6146102195780638da5cb5b14610230578063b5f522f71461025b578063b961847814610298576100e8565b8063310c87cc116100c6578063310c87cc1461015d57806369d03738146101885780636e9960c3146101b15780636f905b78146101dc576100e8565b8063180d3fbb146100ed57806326b85ee1146101165780632e0c9ced14610141575b600080fd5b3480156100f957600080fd5b50610114600480360381019061010f9190610d21565b61035c565b005b34801561012257600080fd5b5061012b6103e2565b6040516101389190610d70565b60405180910390f35b61015b60048036038101906101569190610d8b565b610408565b005b34801561016957600080fd5b50610172610595565b60405161017f9190610d70565b60405180910390f35b34801561019457600080fd5b506101af60048036038101906101aa9190610db8565b6105bb565b005b3480156101bd57600080fd5b506101c66105ff565b6040516101d39190610d70565b60405180910390f35b3480156101e857600080fd5b5061020360048036038101906101fe9190610d8b565b610629565b6040516102109190610e10565b60405180910390f35b34801561022557600080fd5b5061022e6106ac565b005b34801561023c57600080fd5b50610245610734565b6040516102529190610d70565b60405180910390f35b34801561026757600080fd5b50610282600480360381019061027d9190610d8b565b61075d565b60405161028f9190610d70565b60405180910390f35b3480156102a457600080fd5b506102ad61079b565b6040516102ba9190610d70565b60405180910390f35b3480156102cf57600080fd5b506102ea60048036038101906102e59190610db8565b6107c5565b005b61030660048036038101906103019190610f71565b6108bd565b005b34801561031457600080fd5b5061031d6109ab565b60405161032a9190610d70565b60405180910390f35b34801561033f57600080fd5b5061035a60048036038101906103559190611064565b6109d1565b005b60405180602001604052808373ffffffffffffffffffffffffffffffffffffffff168152506004600083815260200190815260200160002060008201518160000160006101000a81548173ffffffffffffffffffffffffffffffffffffffff021916908373ffffffffffffffffffffffffffffffffffffffff1602179055509050505050565b600360009054906101000a900473ffffffffffffffffffffffffffffffffffffffff1681565b600033905060006004600084815260200190815260200160002060000160009054906101000a900473ffffffffffffffffffffffffffffffffffffffff1690508073ffffffffffffffffffffffffffffffffffffffff168273ffffffffffffffffffffffffffffffffffffffff167f252b244cefdc24522fc84ee13ea3162cf8b8530956a0813769abe078fa30a327346040516104a591906110b3565b60405180910390a38073ffffffffffffffffffffffffffffffffffffffff166108fc349081150290604051600060405180830381858888f193505050501580156104f3573d6000803e3d6000fd5b50600260009054906101000a900473ffffffffffffffffffffffffffffffffffffffff1673ffffffffffffffffffffffffffffffffffffffff1663cb7125353084866040518463ffffffff1660e01b8152600401610553939291906110ce565b600060405180830381600087803b15801561056d57600080fd5b505af1158015610581573d6000803e3d6000fd5b505050506105908360006109d1565b505050565b600260009054906101000a900473ffffffffffffffffffffffffffffffffffffffff1681565b80600260006101000a81548173ffffffffffffffffffffffffffffffffffffffff021916908373ffffffffffffffffffffffffffffffffffffffff16021790555050565b6000600160009054906101000a900473ffffffffffffffffffffffffffffffffffffffff16905090565b610631610c50565b600460008381526020019081526020016000206040518060200160405290816000820160009054906101000a900473ffffffffffffffffffffffffffffffffffffffff1673ffffffffffffffffffffffffffffffffffffffff1673ffffffffffffffffffffffffffffffffffffffff16815250509050919050565b6106b4610b84565b73ffffffffffffffffffffffffffffffffffffffff166106d2610734565b73ffffffffffffffffffffffffffffffffffffffff1614610728576040517f08c379a000000000000000000000000000000000000000000000000000000000815260040161071f90611162565b60405180910390fd5b6107326000610b8c565b565b60008060009054906101000a900473ffffffffffffffffffffffffffffffffffffffff16905090565b60046020528060005260406000206000915090508060000160009054906101000a900473ffffffffffffffffffffffffffffffffffffffff16905081565b6000600260009054906101000a900473ffffffffffffffffffffffffffffffffffffffff16905090565b6107cd610b84565b73ffffffffffffffffffffffffffffffffffffffff166107eb610734565b73ffffffffffffffffffffffffffffffffffffffff1614610841576040517f08c379a000000000000000000000000000000000000000000000000000000000815260040161083890611162565b60405180910390fd5b600073ffffffffffffffffffffffffffffffffffffffff168173ffffffffffffffffffffffffffffffffffffffff1614156108b1576040517f08c379a00000000000000000000000000000000000000000000000000000000081526004016108a8906111f4565b60405180910390fd5b6108ba81610b8c565b50565b600033905060008590508073ffffffffffffffffffffffffffffffffffffffff166108fc349081150290604051600060405180830381858888f1935050505015801561090d573d6000803e3d6000fd5b50600260009054906101000a900473ffffffffffffffffffffffffffffffffffffffff1673ffffffffffffffffffffffffffffffffffffffff16631157022f83878787346040518663ffffffff1660e01b815260040161097195949392919061128b565b600060405180830381600087803b15801561098b57600080fd5b505af115801561099f573d6000803e3d6000fd5b50505050505050505050565b600160009054906101000a900473ffffffffffffffffffffffffffffffffffffffff1681565b8015610b43573373ffffffffffffffffffffffffffffffffffffffff166004600084815260200190815260200160002060000160009054906101000a900473ffffffffffffffffffffffffffffffffffffffff1673ffffffffffffffffffffffffffffffffffffffff1614610a7b576040517f08c379a0000000000000000000000000000000000000000000000000000000008152600401610a7290611365565b60405180910390fd5b600260009054906101000a900473ffffffffffffffffffffffffffffffffffffffff1673ffffffffffffffffffffffffffffffffffffffff1663cb712535306004600086815260200190815260200160002060000160009054906101000a900473ffffffffffffffffffffffffffffffffffffffff16856040518463ffffffff1660e01b8152600401610b10939291906110ce565b600060405180830381600087803b158015610b2a57600080fd5b505af1158015610b3e573d6000803e3d6000fd5b505050505b60046000838152602001908152602001600020600080820160006101000a81549073ffffffffffffffffffffffffffffffffffffffff021916905550505050565b600033905090565b60008060009054906101000a900473ffffffffffffffffffffffffffffffffffffffff169050816000806101000a81548173ffffffffffffffffffffffffffffffffffffffff021916908373ffffffffffffffffffffffffffffffffffffffff1602179055508173ffffffffffffffffffffffffffffffffffffffff168173ffffffffffffffffffffffffffffffffffffffff167f8be0079c531659141344cd1fd0a4f28419497f9722a3daafe3b4186f6b6457e060405160405180910390a35050565b6040518060200160405280600073ffffffffffffffffffffffffffffffffffffffff1681525090565b6000604051905090565b600080fd5b600080fd5b600073ffffffffffffffffffffffffffffffffffffffff82169050919050565b6000610cb882610c8d565b9050919050565b610cc881610cad565b8114610cd357600080fd5b50565b600081359050610ce581610cbf565b92915050565b6000819050919050565b610cfe81610ceb565b8114610d0957600080fd5b50565b600081359050610d1b81610cf5565b92915050565b60008060408385031215610d3857610d37610c83565b5b6000610d4685828601610cd6565b9250506020610d5785828601610d0c565b9150509250929050565b610d6a81610cad565b82525050565b6000602082019050610d856000830184610d61565b92915050565b600060208284031215610da157610da0610c83565b5b6000610daf84828501610d0c565b91505092915050565b600060208284031215610dce57610dcd610c83565b5b6000610ddc84828501610cd6565b91505092915050565b610dee81610cad565b82525050565b602082016000820151610e0a6000850182610de5565b50505050565b6000602082019050610e256000830184610df4565b92915050565b600080fd5b600080fd5b6000601f19601f8301169050919050565b7f4e487b7100000000000000000000000000000000000000000000000000000000600052604160045260246000fd5b610e7e82610e35565b810181811067ffffffffffffffff82111715610e9d57610e9c610e46565b5b80604052505050565b6000610eb0610c79565b9050610ebc8282610e75565b919050565b600067ffffffffffffffff821115610edc57610edb610e46565b5b610ee582610e35565b9050602081019050919050565b82818337600083830152505050565b6000610f14610f0f84610ec1565b610ea6565b905082815260208101848484011115610f3057610f2f610e30565b5b610f3b848285610ef2565b509392505050565b600082601f830112610f5857610f57610e2b565b5b8135610f68848260208601610f01565b91505092915050565b60008060008060808587031215610f8b57610f8a610c83565b5b6000610f9987828801610cd6565b945050602085013567ffffffffffffffff811115610fba57610fb9610c88565b5b610fc687828801610f43565b935050604085013567ffffffffffffffff811115610fe757610fe6610c88565b5b610ff387828801610f43565b925050606085013567ffffffffffffffff81111561101457611013610c88565b5b61102087828801610f43565b91505092959194509250565b60008115159050919050565b6110418161102c565b811461104c57600080fd5b50565b60008135905061105e81611038565b92915050565b6000806040838503121561107b5761107a610c83565b5b600061108985828601610d0c565b925050602061109a8582860161104f565b9150509250929050565b6110ad81610ceb565b82525050565b60006020820190506110c860008301846110a4565b92915050565b60006060820190506110e36000830186610d61565b6110f06020830185610d61565b6110fd60408301846110a4565b949350505050565b600082825260208201905092915050565b7f4f776e61626c653a2063616c6c6572206973206e6f7420746865206f776e6572600082015250565b600061114c602083611105565b915061115782611116565b602082019050919050565b6000602082019050818103600083015261117b8161113f565b9050919050565b7f4f776e61626c653a206e6577206f776e657220697320746865207a65726f206160008201527f6464726573730000000000000000000000000000000000000000000000000000602082015250565b60006111de602683611105565b91506111e982611182565b604082019050919050565b6000602082019050818103600083015261120d816111d1565b9050919050565b600081519050919050565b60005b8381101561123d578082015181840152602081019050611222565b8381111561124c576000848401525b50505050565b600061125d82611214565b6112678185611105565b935061127781856020860161121f565b61128081610e35565b840191505092915050565b600060a0820190506112a06000830188610d61565b81810360208301526112b28187611252565b905081810360408301526112c68186611252565b905081810360608301526112da8185611252565b90506112e960808301846110a4565b9695505050505050565b7f596f7520617265206e6f74206f776e65722121204f6e6c79206f776e6572206360008201527f616e2063616e63656c207468652073616c652100000000000000000000000000602082015250565b600061134f603383611105565b915061135a826112f3565b604082019050919050565b6000602082019050818103600083015261137e81611342565b905091905056fea26469706673582212200c88d15e11dea75e39bf01722abe327d0392a0faf2f2d6e884e68d02b5bb54f464736f6c634300080a0033",
  "immutableReferences": {},
  "source": "// SPDX-License-Identifier: MIT\r\npragma solidity ^0.8.4;\r\n\r\nimport \"./access/Ownable.sol\";\r\nimport \"./token/ERC20/ERC20.sol\";\r\nimport \"./token/ERC721/ERC721.sol\";\r\nimport \"./DonateNFT.sol\";\r\n\r\ncontract Market is Ownable {\r\n    address public admin;\r\n    address public NFTAddress;\r\n    address public myAddress;\r\n    mapping(uint256 => Sales) public sales;\r\n\r\n    struct Sales {\r\n        address seller;\r\n    }\r\n\r\n    event SendEther(\r\n        address indexed sender,\r\n        address indexed receiver,\r\n        uint256 price\r\n    );\r\n\r\n    constructor() {\r\n        admin = msg.sender;\r\n        myAddress = address(this);\r\n    }\r\n\r\n    function setNFTAddress(address _NFTAddress) public {\r\n        NFTAddress = _NFTAddress;\r\n    }\r\n\r\n    function getNFTAddress() public view returns (address) {\r\n        return NFTAddress;\r\n    }\r\n\r\n    function newSale(address seller, uint256 tokenId) public {\r\n        sales[tokenId] = Sales(seller);\r\n    }\r\n\r\n    function deleteSale(uint256 tokenId, bool isCancel) public {\r\n        if (isCancel) {\r\n            require(\r\n                sales[tokenId].seller == msg.sender,\r\n                \"You are not owner!! Only owner can cancel the sale!\"\r\n            );\r\n\r\n            DonateNFT(NFTAddress)._transferFrom(\r\n                address(this),\r\n                sales[tokenId].seller,\r\n                tokenId\r\n            );\r\n        }\r\n\r\n        delete sales[tokenId];\r\n    }\r\n\r\n    function getSales(uint256 tokenId) public view returns (Sales memory) {\r\n        return sales[tokenId];\r\n    }\r\n\r\n    function getAdmin() public view returns (address) {\r\n        return admin;\r\n    }\r\n\r\n    function trading(uint256 tokenId) public payable {\r\n        address buyer = msg.sender;\r\n        address payable seller = payable(sales[tokenId].seller);\r\n        emit SendEther(buyer, seller, msg.value);\r\n        seller.transfer(msg.value);\r\n\r\n        DonateNFT(NFTAddress)._transferFrom(address(this), buyer, tokenId);\r\n\r\n        deleteSale(tokenId, false);\r\n    }\r\n\r\n    function donating(\r\n        address donateGetter,\r\n        string memory assetName,\r\n        string memory assetDesc,\r\n        string memory assetImageUrl\r\n    ) public payable {\r\n        address donatingAddress = msg.sender;\r\n        address payable getter = payable(donateGetter);\r\n        getter.transfer(msg.value);\r\n\r\n        DonateNFT(NFTAddress).create(\r\n            donatingAddress,\r\n            assetName,\r\n            assetDesc,\r\n            assetImageUrl,\r\n            msg.value\r\n        );\r\n    }\r\n}\r\n",
  "sourcePath": "D:\\SSAFY\\work_SSAFY\\PJT\\S06P22D109\\smart-contracts\\contracts\\Market.sol",
  "compiler": {
    "name": "solc",
    "version": "0.8.10+commit.fc410830.Emscripten.clang"
  },
  "schemaVersion": "3.4.3",
  "updatedAt": "2022-04-07T07:22:32.940Z",
  "networkType": "ethereum",
  "devdoc": {
    "kind": "dev",
    "methods": {
      "owner()": {
        "details": "Returns the address of the current owner."
      },
      "renounceOwnership()": {
        "details": "Leaves the contract without owner. It will not be possible to call `onlyOwner` functions anymore. Can only be called by the current owner. NOTE: Renouncing ownership will leave the contract without an owner, thereby removing any functionality that is only available to the owner."
      },
      "transferOwnership(address)": {
        "details": "Transfers ownership of the contract to a new account (`newOwner`). Can only be called by the current owner."
      }
    },
    "version": 1
  },
  "userdoc": {
    "kind": "user",
    "methods": {},
    "version": 1
  }
}