{
  "contractName": "SaleList",
  "abi": [
    {
      "inputs": [],
      "stateMutability": "nonpayable",
      "type": "constructor"
    },
    {
      "inputs": [],
      "name": "erc20Contract",
      "outputs": [
        {
          "internalType": "contract IERC20",
          "name": "",
          "type": "address"
        }
      ],
      "stateMutability": "view",
      "type": "function"
    },
    {
      "inputs": [],
      "name": "erc721Constract",
      "outputs": [
        {
          "internalType": "contract IERC721",
          "name": "",
          "type": "address"
        }
      ],
      "stateMutability": "view",
      "type": "function"
    },
    {
      "inputs": [
        {
          "internalType": "uint256",
          "name": "",
          "type": "uint256"
        }
      ],
      "name": "sales",
      "outputs": [
        {
          "internalType": "address",
          "name": "seller",
          "type": "address"
        },
        {
          "internalType": "uint256",
          "name": "price",
          "type": "uint256"
        }
      ],
      "stateMutability": "view",
      "type": "function"
    },
    {
      "inputs": [
        {
          "internalType": "address",
          "name": "seller",
          "type": "address"
        },
        {
          "internalType": "uint256",
          "name": "itemId",
          "type": "uint256"
        },
        {
          "internalType": "uint256",
          "name": "price",
          "type": "uint256"
        }
      ],
      "name": "newSale",
      "outputs": [
        {
          "internalType": "uint256",
          "name": "",
          "type": "uint256"
        }
      ],
      "stateMutability": "nonpayable",
      "type": "function"
    },
    {
      "inputs": [
        {
          "internalType": "uint256",
          "name": "tokenId",
          "type": "uint256"
        }
      ],
      "name": "getSeller",
      "outputs": [
        {
          "internalType": "address",
          "name": "",
          "type": "address"
        }
      ],
      "stateMutability": "view",
      "type": "function"
    },
    {
      "inputs": [],
      "name": "allSales",
      "outputs": [
        {
          "components": [
            {
              "internalType": "address",
              "name": "seller",
              "type": "address"
            },
            {
              "internalType": "uint256",
              "name": "price",
              "type": "uint256"
            }
          ],
          "internalType": "struct Sales[]",
          "name": "",
          "type": "tuple[]"
        }
      ],
      "stateMutability": "view",
      "type": "function"
    }
  ],
  "bytecode": "0x608060405234801561001057600080fd5b50610778806100206000396000f3fe608060405234801561001057600080fd5b50600436106100625760003560e01c80635b4cc249146100675780636eafecba14610097578063a8f6c913146100b5578063b5f522f7146100d3578063d6a9de5114610104578063ef0a230e14610134575b600080fd5b610081600480360381019061007c9190610442565b610152565b60405161008e91906104a4565b60405180910390f35b61009f6101fc565b6040516100ac91906105bb565b60405180910390f35b6100bd6102bb565b6040516100ca919061063c565b60405180910390f35b6100ed60048036038101906100e89190610657565b6102e1565b6040516100fb929190610693565b60405180910390f35b61011e60048036038101906101199190610657565b610335565b60405161012b91906106bc565b60405180910390f35b61013c610383565b60405161014991906106f8565b60405180910390f35b600060405180604001604052808573ffffffffffffffffffffffffffffffffffffffff168152602001838152506000848154811061019357610192610713565b5b906000526020600020906002020160008201518160000160006101000a81548173ffffffffffffffffffffffffffffffffffffffff021916908373ffffffffffffffffffffffffffffffffffffffff160217905550602082015181600101559050509392505050565b60606000805480602002602001604051908101604052809291908181526020016000905b828210156102b257838290600052602060002090600202016040518060400160405290816000820160009054906101000a900473ffffffffffffffffffffffffffffffffffffffff1673ffffffffffffffffffffffffffffffffffffffff1673ffffffffffffffffffffffffffffffffffffffff16815260200160018201548152505081526020019060010190610220565b50505050905090565b600160009054906101000a900473ffffffffffffffffffffffffffffffffffffffff1681565b600081815481106102f157600080fd5b90600052602060002090600202016000915090508060000160009054906101000a900473ffffffffffffffffffffffffffffffffffffffff16908060010154905082565b600080828154811061034a57610349610713565b5b906000526020600020906002020160000160009054906101000a900473ffffffffffffffffffffffffffffffffffffffff169050919050565b600260009054906101000a900473ffffffffffffffffffffffffffffffffffffffff1681565b600080fd5b600073ffffffffffffffffffffffffffffffffffffffff82169050919050565b60006103d9826103ae565b9050919050565b6103e9816103ce565b81146103f457600080fd5b50565b600081359050610406816103e0565b92915050565b6000819050919050565b61041f8161040c565b811461042a57600080fd5b50565b60008135905061043c81610416565b92915050565b60008060006060848603121561045b5761045a6103a9565b5b6000610469868287016103f7565b935050602061047a8682870161042d565b925050604061048b8682870161042d565b9150509250925092565b61049e8161040c565b82525050565b60006020820190506104b96000830184610495565b92915050565b600081519050919050565b600082825260208201905092915050565b6000819050602082019050919050565b6104f4816103ce565b82525050565b6105038161040c565b82525050565b60408201600082015161051f60008501826104eb565b50602082015161053260208501826104fa565b50505050565b60006105448383610509565b60408301905092915050565b6000602082019050919050565b6000610568826104bf565b61057281856104ca565b935061057d836104db565b8060005b838110156105ae5781516105958882610538565b97506105a083610550565b925050600181019050610581565b5085935050505092915050565b600060208201905081810360008301526105d5818461055d565b905092915050565b6000819050919050565b60006106026105fd6105f8846103ae565b6105dd565b6103ae565b9050919050565b6000610614826105e7565b9050919050565b600061062682610609565b9050919050565b6106368161061b565b82525050565b6000602082019050610651600083018461062d565b92915050565b60006020828403121561066d5761066c6103a9565b5b600061067b8482850161042d565b91505092915050565b61068d816103ce565b82525050565b60006040820190506106a86000830185610684565b6106b56020830184610495565b9392505050565b60006020820190506106d16000830184610684565b92915050565b60006106e282610609565b9050919050565b6106f2816106d7565b82525050565b600060208201905061070d60008301846106e9565b92915050565b7f4e487b7100000000000000000000000000000000000000000000000000000000600052603260045260246000fdfea264697066735822122098a2fb4d9f537bd6268d778b0cd0101ba95d798b156cf0b282d27b88fcb1dd9764736f6c634300080a0033",
  "immutableReferences": {},
  "source": "// SPDX-License-Identifier: MIT\r\npragma solidity ^0.8.4;\r\n\r\nimport \"./access/Ownable.sol\";\r\nimport \"./token/ERC20/ERC20.sol\";\r\nimport \"./token/ERC721/ERC721.sol\";\r\nimport \"./DonateNFT.sol\";\r\n\r\nstruct Sales {\r\n    address seller;\r\n    // uint256 tokenId;\r\n    uint256 price;\r\n}\r\n\r\ncontract Market is Ownable {\r\n    address public admin;\r\n    address public NFTAddress;\r\n    address public saleListAddress;\r\n\r\n    constructor(address _NFTAddress, address _saleListAddress) {\r\n        admin = msg.sender;\r\n        NFTAddress = _NFTAddress;\r\n        saleListAddress = _saleListAddress;\r\n    }\r\n\r\n    function newSale(\r\n        address seller,\r\n        uint256 itemId,\r\n        uint256 price\r\n    ) public returns (address) {\r\n        SaleList(saleListAddress).newSale(seller, itemId, price);\r\n    }\r\n\r\n    function allSales() public view returns (Sales[] memory) {\r\n        return SaleList(saleListAddress).allSales();\r\n    }\r\n\r\n    function trading(address buyer, uint256 itemId) public returns (uint256) {\r\n        address seller = SaleList(saleListAddress).getSeller(itemId);\r\n\r\n        DonateNFT(NFTAddress).transferFrom(seller, buyer, itemId);\r\n    }\r\n}\r\n\r\ncontract SaleList {\r\n    Sales[] public sales;\r\n\r\n    IERC20 public erc20Contract;\r\n    IERC721 public erc721Constract;\r\n\r\n    constructor() {}\r\n\r\n    function newSale(\r\n        address seller,\r\n        uint256 itemId,\r\n        uint256 price\r\n    ) public returns (uint256) {\r\n        sales[itemId] = Sales(seller, price);\r\n        // sales.push(Sales(seller, itemId, price));\r\n    }\r\n\r\n    function getSeller(uint256 tokenId) public view returns (address) {\r\n        return sales[tokenId].seller;\r\n    }\r\n\r\n    // function purchase() public {\r\n    //     // TODO\r\n    // }\r\n\r\n    // function getSaleInfo()\r\n    //     public\r\n    //     view\r\n    //     returns (\r\n    //         uint256,\r\n    //         uint256,\r\n    //         address,\r\n    //         address\r\n    //     )\r\n    // {\r\n    //     return (price, tokenId, currencyAddress, nftAddress);\r\n    // }\r\n\r\n    function allSales() public view returns (Sales[] memory) {\r\n        return sales;\r\n    }\r\n\r\n    function _getCurrencyAmount() private view returns (uint256) {\r\n        return erc20Contract.balanceOf(msg.sender);\r\n    }\r\n\r\n    // modifier       .\r\n    // modifier onlySeller() {\r\n    //     require(msg.sender == seller, \"Sale: You are not seller.\");\r\n    //     _;\r\n    // }\r\n}\r\n",
  "sourcePath": "D:\\SSAFY\\work_SSAFY\\PJT\\S06P22D109\\smart-contracts\\contracts\\Market.sol",
  "compiler": {
    "name": "solc",
    "version": "0.8.10+commit.fc410830.Emscripten.clang"
  },
  "schemaVersion": "3.4.3",
  "updatedAt": "2022-03-31T11:43:15.616Z",
  "devdoc": {
    "kind": "dev",
    "methods": {},
    "version": 1
  },
  "userdoc": {
    "kind": "user",
    "methods": {},
    "version": 1
  }
}