{
  "contractName": "SaleFactory",
  "abi": [
    {
      "inputs": [],
      "stateMutability": "nonpayable",
      "type": "constructor"
    },
    {
      "anonymous": false,
      "inputs": [
        {
          "indexed": true,
          "internalType": "address",
          "name": "_saleContract",
          "type": "address"
        },
        {
          "indexed": true,
          "internalType": "address",
          "name": "_owner",
          "type": "address"
        },
        {
          "indexed": false,
          "internalType": "uint256",
          "name": "_workId",
          "type": "uint256"
        }
      ],
      "name": "NewSale",
      "type": "event"
    },
    {
      "anonymous": false,
      "inputs": [
        {
          "indexed": true,
          "internalType": "address",
          "name": "previousOwner",
          "type": "address"
        },
        {
          "indexed": true,
          "internalType": "address",
          "name": "newOwner",
          "type": "address"
        }
      ],
      "name": "OwnershipTransferred",
      "type": "event"
    },
    {
      "inputs": [],
      "name": "admin",
      "outputs": [
        {
          "internalType": "address",
          "name": "",
          "type": "address"
        }
      ],
      "stateMutability": "view",
      "type": "function"
    },
    {
      "inputs": [],
      "name": "owner",
      "outputs": [
        {
          "internalType": "address",
          "name": "",
          "type": "address"
        }
      ],
      "stateMutability": "view",
      "type": "function"
    },
    {
      "inputs": [],
      "name": "renounceOwnership",
      "outputs": [],
      "stateMutability": "nonpayable",
      "type": "function"
    },
    {
      "inputs": [
        {
          "internalType": "uint256",
          "name": "",
          "type": "uint256"
        }
      ],
      "name": "sales",
      "outputs": [
        {
          "internalType": "address",
          "name": "",
          "type": "address"
        }
      ],
      "stateMutability": "view",
      "type": "function"
    },
    {
      "inputs": [
        {
          "internalType": "address",
          "name": "newOwner",
          "type": "address"
        }
      ],
      "name": "transferOwnership",
      "outputs": [],
      "stateMutability": "nonpayable",
      "type": "function"
    },
    {
      "inputs": [
        {
          "internalType": "uint256",
          "name": "itemId",
          "type": "uint256"
        },
        {
          "internalType": "uint256",
          "name": "minPrice",
          "type": "uint256"
        },
        {
          "internalType": "uint256",
          "name": "purchasePrice",
          "type": "uint256"
        },
        {
          "internalType": "uint256",
          "name": "startTime",
          "type": "uint256"
        },
        {
          "internalType": "uint256",
          "name": "endTime",
          "type": "uint256"
        },
        {
          "internalType": "address",
          "name": "currencyAddress",
          "type": "address"
        },
        {
          "internalType": "address",
          "name": "nftAddress",
          "type": "address"
        }
      ],
      "name": "createSale",
      "outputs": [
        {
          "internalType": "address",
          "name": "",
          "type": "address"
        }
      ],
      "stateMutability": "nonpayable",
      "type": "function"
    },
    {
      "inputs": [],
      "name": "allSales",
      "outputs": [
        {
          "internalType": "address[]",
          "name": "",
          "type": "address[]"
        }
      ],
      "stateMutability": "view",
      "type": "function"
    }
  ],
  "bytecode": "0x608060405234801561001057600080fd5b5061002d61002261007360201b60201c565b61007b60201b60201c565b33600160006101000a81548173ffffffffffffffffffffffffffffffffffffffff021916908373ffffffffffffffffffffffffffffffffffffffff16021790555061013f565b600033905090565b60008060009054906101000a900473ffffffffffffffffffffffffffffffffffffffff169050816000806101000a81548173ffffffffffffffffffffffffffffffffffffffff021916908373ffffffffffffffffffffffffffffffffffffffff1602179055508173ffffffffffffffffffffffffffffffffffffffff168173ffffffffffffffffffffffffffffffffffffffff167f8be0079c531659141344cd1fd0a4f28419497f9722a3daafe3b4186f6b6457e060405160405180910390a35050565b6108bb8061014e6000396000f3fe608060405234801561001057600080fd5b506004361061007d5760003560e01c80639aafe3c91161005b5780639aafe3c9146100c8578063b5f522f7146100f8578063f2fde38b14610128578063f851a440146101445761007d565b80636eafecba14610082578063715018a6146100a05780638da5cb5b146100aa575b600080fd5b61008a610162565b60405161009791906105c7565b60405180910390f35b6100a86101f0565b005b6100b2610278565b6040516100bf91906105f8565b60405180910390f35b6100e260048036038101906100dd919061067a565b6102a1565b6040516100ef91906105f8565b60405180910390f35b610112600480360381019061010d919061071c565b6102ae565b60405161011f91906105f8565b60405180910390f35b610142600480360381019061013d9190610749565b6102ed565b005b61014c6103e5565b60405161015991906105f8565b60405180910390f35b606060028054806020026020016040519081016040528092919081815260200182805480156101e657602002820191906000526020600020905b8160009054906101000a900473ffffffffffffffffffffffffffffffffffffffff1673ffffffffffffffffffffffffffffffffffffffff168152602001906001019080831161019c575b5050505050905090565b6101f861040b565b73ffffffffffffffffffffffffffffffffffffffff16610216610278565b73ffffffffffffffffffffffffffffffffffffffff161461026c576040517f08c379a0000000000000000000000000000000000000000000000000000000008152600401610263906107d3565b60405180910390fd5b6102766000610413565b565b60008060009054906101000a900473ffffffffffffffffffffffffffffffffffffffff16905090565b6000979650505050505050565b600281815481106102be57600080fd5b906000526020600020016000915054906101000a900473ffffffffffffffffffffffffffffffffffffffff1681565b6102f561040b565b73ffffffffffffffffffffffffffffffffffffffff16610313610278565b73ffffffffffffffffffffffffffffffffffffffff1614610369576040517f08c379a0000000000000000000000000000000000000000000000000000000008152600401610360906107d3565b60405180910390fd5b600073ffffffffffffffffffffffffffffffffffffffff168173ffffffffffffffffffffffffffffffffffffffff1614156103d9576040517f08c379a00000000000000000000000000000000000000000000000000000000081526004016103d090610865565b60405180910390fd5b6103e281610413565b50565b600160009054906101000a900473ffffffffffffffffffffffffffffffffffffffff1681565b600033905090565b60008060009054906101000a900473ffffffffffffffffffffffffffffffffffffffff169050816000806101000a81548173ffffffffffffffffffffffffffffffffffffffff021916908373ffffffffffffffffffffffffffffffffffffffff1602179055508173ffffffffffffffffffffffffffffffffffffffff168173ffffffffffffffffffffffffffffffffffffffff167f8be0079c531659141344cd1fd0a4f28419497f9722a3daafe3b4186f6b6457e060405160405180910390a35050565b600081519050919050565b600082825260208201905092915050565b6000819050602082019050919050565b600073ffffffffffffffffffffffffffffffffffffffff82169050919050565b600061052e82610503565b9050919050565b61053e81610523565b82525050565b60006105508383610535565b60208301905092915050565b6000602082019050919050565b6000610574826104d7565b61057e81856104e2565b9350610589836104f3565b8060005b838110156105ba5781516105a18882610544565b97506105ac8361055c565b92505060018101905061058d565b5085935050505092915050565b600060208201905081810360008301526105e18184610569565b905092915050565b6105f281610523565b82525050565b600060208201905061060d60008301846105e9565b92915050565b600080fd5b6000819050919050565b61062b81610618565b811461063657600080fd5b50565b60008135905061064881610622565b92915050565b61065781610523565b811461066257600080fd5b50565b6000813590506106748161064e565b92915050565b600080600080600080600060e0888a03121561069957610698610613565b5b60006106a78a828b01610639565b97505060206106b88a828b01610639565b96505060406106c98a828b01610639565b95505060606106da8a828b01610639565b94505060806106eb8a828b01610639565b93505060a06106fc8a828b01610665565b92505060c061070d8a828b01610665565b91505092959891949750929550565b60006020828403121561073257610731610613565b5b600061074084828501610639565b91505092915050565b60006020828403121561075f5761075e610613565b5b600061076d84828501610665565b91505092915050565b600082825260208201905092915050565b7f4f776e61626c653a2063616c6c6572206973206e6f7420746865206f776e6572600082015250565b60006107bd602083610776565b91506107c882610787565b602082019050919050565b600060208201905081810360008301526107ec816107b0565b9050919050565b7f4f776e61626c653a206e6577206f776e657220697320746865207a65726f206160008201527f6464726573730000000000000000000000000000000000000000000000000000602082015250565b600061084f602683610776565b915061085a826107f3565b604082019050919050565b6000602082019050818103600083015261087e81610842565b905091905056fea26469706673582212202f9ea8393316a11177c39a3aa4d32785117920c624512efec2720c6e6fc9573364736f6c634300080a0033",
  "immutableReferences": {},
  "source": "// SPDX-License-Identifier: MIT\npragma solidity ^0.8.4;\n\nimport \"./access/Ownable.sol\";\nimport \"./token/ERC20/ERC20.sol\";\nimport \"./token/ERC721/ERC721.sol\";\n\n/**\n * PJT  - Req.1-SC1 SaleFactory \n *    ,      .\n */\ncontract SaleFactory is Ownable {\n    address public admin;\n    address[] public sales;\n\n    event NewSale(\n        address indexed _saleContract,\n        address indexed _owner,\n        uint256 _workId\n    );\n\n    constructor() {\n        admin = msg.sender;\n    }\n\n    /**\n     * @dev   .\n     */\n    function createSale(\n        uint256 itemId,\n        uint256 minPrice,\n        uint256 purchasePrice,\n        uint256 startTime,\n        uint256 endTime,\n        address currencyAddress,\n        address nftAddress\n    ) public returns (address) {\n        // TODO\n    }\n\n    function allSales() public view returns (address[] memory) {\n        return sales;\n    }\n}\n\n/**\n *  PJT  - Req.1-SC2) Sale \n */\ncontract Sale {\n    //    \n    address public seller;\n    address public buyer;\n    address admin;\n    uint256 public saleStartTime;\n    uint256 public saleEndTime;\n    uint256 public minPrice;\n    uint256 public purchasePrice;\n    uint256 public tokenId;\n    address public currencyAddress;\n    address public nftAddress;\n    bool public ended;\n\n    //    \n    address public highestBidder;\n    uint256 public highestBid;\n\n    IERC20 public erc20Contract;\n    IERC721 public erc721Constract;\n\n    event HighestBidIncereased(address bidder, uint256 amount);\n    event SaleEnded(address winner, uint256 amount);\n\n    constructor(\n        address _admin,\n        address _seller,\n        uint256 _tokenId,\n        uint256 _minPrice,\n        uint256 _purchasePrice,\n        uint256 startTime,\n        uint256 endTime,\n        address _currencyAddress,\n        address _nftAddress\n    ) {\n        require(_minPrice > 0);\n        tokenId = _tokenId;\n        minPrice = _minPrice;\n        purchasePrice = _purchasePrice;\n        seller = _seller;\n        admin = _admin;\n        saleStartTime = startTime;\n        saleEndTime = endTime;\n        currencyAddress = _currencyAddress;\n        nftAddress = _nftAddress;\n        ended = false;\n        erc20Contract = IERC20(_currencyAddress);\n        erc721Constract = IERC721(_nftAddress);\n    }\n\n    function bid(uint256 bid_amount) public {\n        // TODO\n    }\n\n    function purchase() public {\n        // TODO\n    }\n\n    function confirmItem() public {\n        // TODO\n    }\n\n    function cancelSales() public {\n        // TODO\n    }\n\n    function getTimeLeft() public view returns (int256) {\n        return (int256)(saleEndTime - block.timestamp);\n    }\n\n    function getSaleInfo()\n        public\n        view\n        returns (\n            uint256,\n            uint256,\n            uint256,\n            uint256,\n            uint256,\n            address,\n            uint256,\n            address,\n            address\n        )\n    {\n        return (\n            saleStartTime,\n            saleEndTime,\n            minPrice,\n            purchasePrice,\n            tokenId,\n            highestBidder,\n            highestBid,\n            currencyAddress,\n            nftAddress\n        );\n    }\n\n    function getHighestBid() public view returns (uint256) {\n        return highestBid;\n    }\n\n    // internal  private     _  .\n    function _end() internal {\n        ended = true;\n    }\n\n    function _getCurrencyAmount() private view returns (uint256) {\n        return erc20Contract.balanceOf(msg.sender);\n    }\n\n    // modifier       .\n    modifier onlySeller() {\n        require(msg.sender == seller, \"Sale: You are not seller.\");\n        _;\n    }\n\n    modifier onlyAfterStart() {\n        require(\n            block.timestamp >= saleStartTime,\n            \"Sale: This sale is not started.\"\n        );\n        _;\n    }\n}\n",
  "sourcePath": "D:\\SSAFY\\work_SSAFY\\PJT\\S06P22D109\\smart-contracts\\contracts\\SaleFactory.sol",
  "compiler": {
    "name": "solc",
    "version": "0.8.10+commit.fc410830.Emscripten.clang"
  },
  "schemaVersion": "3.4.3",
  "updatedAt": "2022-04-07T07:15:57.191Z",
  "devdoc": {
    "kind": "dev",
    "methods": {
      "createSale(uint256,uint256,uint256,uint256,uint256,address,address)": {
        "details": "  ."
      },
      "owner()": {
        "details": "Returns the address of the current owner."
      },
      "renounceOwnership()": {
        "details": "Leaves the contract without owner. It will not be possible to call `onlyOwner` functions anymore. Can only be called by the current owner. NOTE: Renouncing ownership will leave the contract without an owner, thereby removing any functionality that is only available to the owner."
      },
      "transferOwnership(address)": {
        "details": "Transfers ownership of the contract to a new account (`newOwner`). Can only be called by the current owner."
      }
    },
    "version": 1
  },
  "userdoc": {
    "kind": "user",
    "methods": {},
    "notice": "PJT  - Req.1-SC1 SaleFactory     ,      .",
    "version": 1
  }
}